:03000000020942B0
:0C094200787FE4F6D8FD75810C0209896D
:100A5D00D3EF9400EE940040147D6E7C00ED1D707C
:0D0A6D00011CED4C70F7EF1F70E61E80E3DA
:010A7A002259
:100A910077413B6B4D6E7E437F6F5F7C36793E1EA7
:020AA1007708D4
:030AB60001080034
:100A2300900AA1E493F5807FF47E01120A5D120A15
:100A3300AF120A7B1208008F09E50C64017012E5FE
:100A4300087009EF900A9193F5808005AF09120AA7
:0A0A5300A37F0A7E00120A5D80DA1C
:030003000209CE21
:1009CE00C0E0C0F0C083C082C0D075D000C000C0EF
:1009DE0001C002C003C004C005C006C007E5087010
:1009EE0008750801900AA28007750800900AA1E414
:1009FE0093F5807F0A7E00120A5DD007D006D005DF
:100A0E00D004D003D002D001D000D0D0D082D08379
:050A1E00D0F0D0E03231
:10080000E4F50C7590EF85900AE50A64EF60437F8C
:100810000A7E00120A5D85900AE50A64EF6033AF34
:1008200090EF64EF7003D38001C350F3E50A2419FD
:10083000601A24FC601124FE6008147012E4F50BA9
:10084000800D750B018008750B028003750B037515
:100850000C017590DF85900AE50A64DF60437F0A2A
:100860007E00120A5D85900AE50A64DF6033AF906E
:10087000EF64DF7003D38001C350F3E50A242960DD
:100880001A24FC601124FE6008147012750B048099
:100890000D750B058008750B068003750B07750C2D
:1008A000017590BF85900AE50A64BF60437F0A7EA8
:1008B00000120A5D85900AE50A64BF6033AF90EFCD
:1008C00064BF7003D38001C350F3E50A2449601A62
:1008D00024FC601124FE6008147012750B08800D52
:1008E000750B098008750B0A8003750B0B750C01DD
:1008F00075907F85900AE50A647F60437F0A7E00D9
:10090000120A5D85900AE50A647F6033AF90EF6458
:100910007F7003D38001C350F3E50A2489601A2451
:10092000FC601124FE6008147012750B0C800D75AC
:100930000B0D8008750B0E8003750B0F750C01AF46
:010940000BAB
:010941002293
:070AAF00D2AFD2A8D28822C9
:100A7B00759850758920E4F587758DFD758BFDC2D2
:060A8B0099D28ED2AC22CC
:0C0AA300C2AC8F993099FDC299D2AC22F0
:10094E00020A23E493A3F8E493A34003F68001F292
:10095E0008DFF48029E493A3F85407240CC8C333AA
:10096E00C4540F4420C8834004F456800146F6DF79
:10097E00E4800B0102040810204080900AB6E47E49
:10098E00019360BCA3FF543F30E509541FFEE4936E
:10099E00A360010ECF54C025E060A840B8E493A335
:1009AE00FAE493A3F8E493A3C8C582C8CAC583CA60
:1009BE00F0A3C8C582C8CAC583CADFE9DEE780BE18
:010AB900003C
:00000001FF
